:020000040800F2
:1000000000040020470100084502000847020008DC
:100010004B0200084F0200085302000800000000D5
:10002000000000000000000000000000570200086F
:1000300059020008000000005B0200085D02000891
:1000400067010008670100086701000867010008F0
:1000500067010008670100086701000867010008E0
:1000600067010008670100086701000867010008D0
:1000700067010008670100086701000867010008C0
:1000800067010008670100086701000867010008B0
:1000900067010008670100086701000867010008A0
:1000A0006701000867010008670100086701000890
:1000B0005B0B0008910C000867010008670100084D
:1000C0006701000867010008670100086701000870
:1000D0006701000867030008ED0400082D07000809
:1000E0006701000867010008670100086701000850
:1000F0006701000867010008670100086701000840
:10010000670100086701000867010008670100082F
:10011000670100086701000867010008670100081F
:10012000670100086701000867010008670100080F
:10013000DFF80CD002F0D0FF00480047750100083E
:1001400050030020704708488047084981F3088819
:1001500007480047FEE7FEE7FEE7FEE7FEE7FEE7AB
:10016000FEE7FEE7FEE7FEE745010008500300203A
:100170003101000802F0F2FE00F02EFC4FF41650A0
:1001800000F08EF84FF4165000F052FA00F0B9FC6F
:1001900000F0A4FC00F05DFC00F09DFB00F044FECC
:1001A0001AA20721012000F0F7FE19A20021022067
:1001B00000F0F2FE17A002F0A1FF012000F02AFCDF
:1001C00015A002F09BFF20E014480078012810D110
:1001D00000201349134A127888540A4612A1134882
:1001E00002F09CFF0E4912A002F088FF00200B498C
:1001F00008704FF4FA7000F00DFC1148006808B95F
:10020000012000E000200E490860DDE753503D006A
:1002100053463D00610D0A00620D0A0006000020F1
:100220006600002004000020257300003400002038
:10023000636D642069733A2025730D0A0000000085
:10024000B4012242704700BFFEE700BFFEE700BFD7
:10025000FEE700BFFEE77047704770477047000039
:10026000014600BF704700BFFE4A128802F04002FC
:10027000002AF9D0C2B2FB4B1B1D1A80704708B58B
:1002800025208DF8000001208DF8010000208DF858
:10029000020001208DF80300684600F034FB08BD21
:1002A00010B586B004460121880301F0ADFA0121A2
:1002B000042001F0A9FA0121084601F0A5FA4FF443
:1002C0000070ADF8040003208DF8060018208DF8AA
:1002D000070001A9E44800F0FBFF4FF48060ADF88F
:1002E000040003208DF8060004208DF8070001A902
:1002F000DD4800F0EDFFDB4801F0EAFA029400204F
:10030000ADF80C00ADF80E00ADF81000ADF814001B
:100310000C20ADF8120002A9D24801F022FB012105
:10032000D04801F08CFBA021CE4801F050FC012206
:1003300040F22551CB4801F08EFBFFF7A0FF06B03D
:1003400010BD10B5044600BF8021C64801F036FC40
:100350000128F9D18021C34801F039FC2146C14868
:1003600001F0D5FB10BD10B540F22551BD4801F09C
:1003700031FC38B3BB48001D0088C4B2402C05D105
:100380000120BA4908700020B9490870B7480078C0
:1003900001280DD1B64801780078401CB44A10708D
:1003A000B4484454232C06D10120B349087002E01C
:1003B0000020AF490870AE480078642802DB0020B6
:1003C000AB49087040F22551A64801F029FC10BD48
:1003D00008B526208DF8000001208DF801008DF869
:1003E00002008DF80300684600F08DFA08BD10B5D4
:1003F00086B004460121480401F013FA01210420CB
:1004000001F002FA0121084601F0FEF90420ADF8DE
:10041000040003208DF8060018208DF8070001A9BC
:10042000914800F055FF0820ADF8040003208DF836
:10043000060004208DF8070001A98B4800F048FF52
:100440008E4801F045FA02940020ADF80C00ADF89A
:100450000E00ADF81000ADF814000C20ADF812003D
:1004600002A9864801F07DFA0121844801F0E7FAEB
:10047000A021824801F0ABFB012240F225517F48C8
:1004800001F0E9FAFFF7A4FF06B010BD10B504466D
:1004900000BF8021794801F091FB0128F9D180212A
:1004A000764801F094FB2146744801F030FB10BD02
:1004B0002DE9F04106460C461746002507EB0408D7
:1004C00025460FE000BF80216C4801F077FB012832
:1004D000F9D18021694801F07AFB715D674801F02C
:1004E00016FB6D1C4545EDDBBDE8F08170B540F2B3
:1004F0002551624801F06EFB002874D05F48001D52
:100500000088C4B25E48007800284FD1222C08D160
:100510005C48007828B901205B49087000205B49DD
:10052000087059480078012803D12E2C01D1554973
:1005300008705548007801282ED154480178007879
:10054000401C524A1070524844540D2C27D14D483B
:100550000078012823D14F4908704A4800780128C3
:100560001DD147480078D0B90120454908700025C1
:1005700000BF4749681C085C474948550846405D2C
:10058000222802D10020485505E0192D00DD02E0A7
:10059000681CC5B2EDE702E000203C4908703B480A
:1005A0000078642802DB002038490870344800785D
:1005B000012823D1402C04D133490870002033494D
:1005C00008703148007801280ED130480178007851
:1005D000401C2E4A10702E484454232C07D1012071
:1005E0002C49087003E00CE00020284908702748D7
:1005F0000078642802DB0020244908702046FFF7B9
:10060000A0FE40F225511D4801F00AFB70BD08B55F
:1006100027208DF8000001208DF8010000208DF8C2
:10062000020001208DF80300684600F06CF908BD57
:1006300010B586B004460121092001F0E5F801213A
:10064000164800F016FF0121880401F0EAF84FF483
:100650000060ADF8140004208DF8170005A91048BB
:1006600020E00000003801400008014005000020A3
:100670000400002066000020060000200044004026
:100680000F0000200E0000200800002007000020BE
:10069000CA000020090000202E01002030001400B4
:1006A000000C014000F014FE4FF48060ADF814001F
:1006B00003208DF8160018208DF8170005A93C4876
:1006C00000F006FE4FF4806000F018F927208DF846
:1006D000100001208DF811008DF812008DF8130024
:1006E00004A800F010F900940020ADF80400ADF863
:1006F0000600ADF80800ADF80C000C20ADF80A00BB
:1007000069462C4801F02DF9012240F22551294873
:1007100001F0A1F90121274801F091F98021254834
:1007200001F055FAFFF773FF06B010BD10B50024B5
:100730002021204801F042FA012807D11D4801F08C
:10074000EAF9C4B221461B4801F0E1F910BD10B529
:10075000044600BF8021174801F030FA0128F9D182
:100760008021144801F033FA2146124801F0CFF9F4
:1007700010BD2DE9F04106460C461746002507EB53
:10078000040825460FE000BF80210A4801F016FA50
:100790000128F9D18021074801F019FA715D054857
:1007A00001F0B5F96D1C4545EDDBBDE8F0810000B9
:1007B000000C01400048004008B50121042001F070
:1007C00023F80720ADF8000000208DF803006946EB
:1007D000464800F07DFD08BD00B585B00121480206
:1007E00001F012F84FF4004000F072FF404801F0B1
:1007F00027FA0020009001208DF8050000200390CA
:100800004FF46020029003208DF8100001208DF835
:1008100004006946364801F040FA05230122002110
:10082000334801F0D2FA052302220121304801F0B9
:10083000CCFA0523032202212D4801F0C6FA01213A
:100840002B4801F061FA0121294801F052FA2848A9
:1008500001F071FA00BF264801F072FA0028FAD1BF
:10086000234801F077FA00BF214801F078FA002808
:10087000FAD105B000BD00B58BB00121084600F0EB
:10088000B6FF1C4801F0F4FB19484C3000901A48A0
:100890000190002002900A904FF480700690800032
:1008A00007900320039080200590002004902020D2
:1008B00008900002099069460E4801F072FC0BB0E6
:1008C00000BD10B501210A4801F053FA0121094881
:1008D00001F092FC10BD10B5FFF76EFFFFF7CBFFE4
:1008E000FFF77AFFFFF7EDFF10BD000000080140A1
:1008F0000024014008000240120000203149014359
:10090000314A1160704770B5002100230F22C4786E
:1009100004B32D4C246804F4E064C4F5E064210AB7
:10092000C1F10403CA40447804FA03F18478144006
:1009300021430901254C0678A155047804F01F05D0
:100940000124AC4005786D11AD0005F1E025C5F836
:10095000004109E0047804F01F050124AC401C4D5F
:100960000678761145F8264070BD1A4A0A400243BF
:10097000154B1B1F1A60704739B1134A121D1268BC
:100980000243114B1B1D1A6006E00F4A121D12682C
:1009900082430D4B1B1D1A607047042808D14FF08D
:1009A000E021096941F004014FF0E022116107E004
:1009B0004FF0E021096921F004014FF0E0221161BC
:1009C000704700000000FA050CED00E000E400E0D4
:1009D00080E100E080FFFF1F08B50121042000F046
:1009E00013FF0121082000F00FFF0121102000F06B
:1009F0000BFF4FF40050ADF8000003208DF802000B
:100A000010208DF803006946014800F061FC08BD24
:100A1000001001402F4909884143491E4FF0E02250
:100A20005161012191611146096941F00101116192
:100A300000BF4FF0E021096901F480310029F8D0AE
:100A40004FF0E021096921F001014FF0E02211612E
:100A500070474FF0E021096921F004014FF0E022D6
:100A600011611146096921F002011161C21700EB01
:100A70005272C2F3C702184B1A701946097801EB7B
:100A80004102C2EBC1114FF6FF7202EAC101114AE5
:100A900011807047104909784143491E4FF0E02208
:100AA0005161012191611146096941F00101116112
:100AB00000BF4FF0E021096901F480310029F8D02E
:100AC0004FF0E021096921F001014FF0E0221161AE
:100AD00070470000180000201A00002008B54FF4ED
:100AE000E060FFF70BFF1C208DF8000001208DF85F
:100AF00001008DF802008DF803006846FFF703FF40
:100B000008BD0EB50121084600F08BFE4FF47A7047
:100B1000ADF804004720ADF800000020ADF8060055
:100B2000ADF8020069464FF0804001F02CFC012135
:100B3000880702F089F901221146900701F0C4FEEE
:100B40000121880701F0A5FE0021012000F069FEC7
:100B50000121084600F065FE0EBD10B50121880791
:100B600002F075F9B8B1012080F3108800BF4E483B
:100B70000068401C4C49086008460068B0F57A7F60
:100B800001D300200860002080F3108800BF0121FD
:100B9000880702F06DF910BD30B589B005460C46E6
:100BA0000121042000F03DFE0121092000F02CFE6F
:100BB0004FF44070ADF8200010208DF82300032082
:100BC0008DF8220008A9394800F082FBADF81850D2
:100BD000ADF814400120ADF81A000020ADF8160061
:100BE00005A9334801F0CFFB6020ADF804000120D7
:100BF000ADF806000020ADF80800ADF80A0001A924
:100C00002B4801F05AFC0821294801F089FF01A96D
:100C1000274801F09AFC0821254801F08AFF0121AC
:100C2000234801F042FE0121214801F033FF012158
:100C30001F4801F02EFE09B030BD7FB505460C46B9
:100C40000121022000F0EDFDADF80850ADF80440A0
:100C50000020ADF80A00ADF8060001A9154801F022
:100C600092FB01224121134801F02EFE1D208DF838
:100C7000000001208DF801008DF802008DF80300BE
:100C80006846FFF740FE01210A4801F002FE7FBDE1
:100C900010B50121074802F0DAF818B10121054822
:100CA00002F0E6F810BD00001C000020000C01401E
:100CB000000800400004004010B5044600204F49E1
:100CC000086001204E49C1F8800100204B49091FEE
:100CD00008600520FFF7DEFE01204949C1F88801C0
:100CE0000520FFF7D7FE04F0010046490860C4F371
:100CF0004000091F0860C4F38000091F0860C4F3A6
:100D0000C000091F0860C4F30010091F0860C4F385
:100D10004010091F0860C4F38010091F0860E00933
:100D200036493431086000203449086010BD10B5E0
:100D300004460020314908603149C1F880012F493B
:100D4000091F08600520FFF7A5FE01202C49C1F806
:100D500088010520FFF79EFE04F001002949086084
:100D6000C4F34000091F0860C4F38000091F086035
:100D7000C4F3C000091F0860C4F30010091F086015
:100D8000C4F34010091F0860C4F38010091F0860F5
:100D9000E0091A493431086000201849086010BD84
:100DA00010B50120174908601749C1F8A00115497D
:100DB00008390860091F0860091F0860091F0860DA
:100DC000091F08600D493431086000200B49086094
:100DD0000A490839086001200949C1F88401052041
:100DE000FFF758FE0120054908600520FFF752FE75
:100DF000024834300068C0B210BD000088012142B2
:100E000000002142A48121420080214210B501202E
:100E1000FFF78DFF0220FFF7FDFD0220FFF787FFA0
:100E20000220FFF7F7FD10BD08B50121084600F0CC
:100E3000EBFC0121E74800F01CFB0121042000F03D
:100E4000E3FC0121082000F0DFFC0720ADF80000E2
:100E500003208DF8020010208DF803006946DE485B
:100E600000F036FA10208DF80300C002ADF8000043
:100E70006946D94800F02CFA41F2FB30ADF8000089
:100E800003208DF8020010208DF803006946D34836
:100E900000F01EFA3820FFF74AFF3220FFF7FAFD74
:100EA0000620FFF744FF3220FFF7F4FD0F20FFF785
:100EB0003EFF3220FFF7EEFD0120FFF738FF022052
:100EC000FFF7A8FD0220FFF732FF0520FFF7A2FD84
:100ED00008BD70B505460C46012D08D104F180010E
:100EE000C8B2FFF724FF3220FFF7D4FD07E004F17A
:100EF000C001C8B2FFF71BFF3220FFF7CBFD70BD6A
:100F000070B506460C461546012E10D104F180013D
:100F1000C8B2FFF70CFF3220FFF7BCFD05F130012E
:100F2000C8B2FFF7C9FE3220FFF7B4FD0FE004F1AD
:100F3000C001C8B2FFF7FBFE3220FFF7ABFD05F1A1
:100F40003001C8B2FFF7B8FE3220FFF7A3FD70BD35
:100F500070B505460C461646012D0ED104F18001F0
:100F6000C8B2FFF7E4FE3220FFF794FD3046FFF7EA
:100F7000A3FE3220FFF78EFD0DE004F1C001C8B2E0
:100F8000FFF7D5FE3220FFF785FD3046FFF794FED0
:100F90003220FFF77FFD70BD2DE9F04107460D4679
:100FA0001646344607E0227829466B1CDDB23846E7
:100FB000FFF7CEFF641C20780028F4D1BDE8F08153
:100FC0002DE9F74F0C4692464FF00009002606E047
:100FD000202231460098FFF7BBFF701CC6B2102ECE
:100FE000F6DB0021504602F06DF808D22D22214692
:100FF0000098FFF7ADFF601CC4B28AF0004A50466B
:1010000002F01CF807460022754B02F02BF80AD8B4
:101010007449504601F0CCFF074601F0FBFF05463E
:101020004FF0560B18E0504602F008F80746002231
:101030006B4B02F02FF80FD2504601F0FFFF07462E
:101040004FF06042684B02F00DF805D8504601F0B1
:10105000E1FF05464FF04B0B504601F0EFFF07460E
:101060004FF06042604B02F015F806D25FA22146B5
:101070000098FFF791FFBDE8FE8F5F48B5FBF0F0E9
:101080000A21B0FBF1F201FB1206B9F1020F00D008
:1010900046B1324621460098FFF732FF4FF0020971
:1010A000601CC4B25548B5FBF0F00A21B0FBF1F268
:1010B00001FB1206B9F1020F00D046B132462146BB
:1010C0000098FFF71DFF4FF00209601CC4B242F206
:1010D0001070B5FBF0F00A21B0FBF1F201FB120633
:1010E000B9F1020F00D046B1324621460098FFF711
:1010F00007FF4FF00209601CC4B24FF002094FF421
:101100007A70B5FBF0F00A21B0FBF1F201FB120698
:10111000B9F1020F00D036B1324621460098FFF7F0
:10112000EFFE601CC4B22146621CD4B22E2200988D
:10113000FFF70EFF6420B5FBF0F00A21B0FBF1F2DF
:1011400001FB12062146621CD4B232460098FFF71A
:10115000D7FE0A20B5FBF0F00A21B0FBF1F201FB4B
:1011600012062146621CD4B232460098FFF7C8FE30
:101170000A20B5FBF0F100FB11562146621CD4B2E7
:1011800032460098FFF7BCFE5A4621460098FFF70A
:10119000DFFE00BF6FE72DE9F04780460E46174699
:1011A0001C463D4611E00A20B4FBF0F100FB11495A
:1011B0007019401EC1B24A464046FFF7A1FE14B165
:1011C0000A20B4FBF0F4681EC5B2002DEBDCBDE8CC
:1011D000F08700000002300000080140000C0140D0
:1011E0008087C34000007A44CF1263414F7574205A
:1011F00052616E672100000040420F00A08601008E
:1012000010B50446C649601A8C422FD009DCC54887
:10121000204480B1B0F5806F16D0B0F5006F4AD190
:101220001BE0B0F5806F2AD0B0F5006F30D0B0F57C
:10123000406F40D135E00121042000F0FFFA002189
:10124000042000F0FBFA37E00121082000F0F6FA54
:101250000021082000F0F2FA2EE00121102000F019
:10126000EDFA0021102000F0E9FA25E0012120200C
:1012700000F0E4FA0021202000F0E0FA1CE0012157
:10128000402000F0DBFA0021402000F0D7FA13E004
:101290000121802000F0D2FA0021802000F0CEFA57
:1012A0000AE00121080200F0C9FA00214FF4807021
:1012B00000F0C4FA00E000BF00BF10BD10B501216E
:1012C000084600F0BBFA0021012000F0B7FA10BD7B
:1012D0002DE9F041024600250026002000230024CD
:1012E000002791F803C00CF00F0591F803C00CF033
:1012F000100CBCF1000F03D091F802C04CEA0505B8
:1013000091F800C0BCF1000F31D0146800202BE030
:101310004FF0010C0CFA00F3B1F800C00CEA030620
:101320009E4220D183004FF00F0C0CFA03F7BC4310
:1013300005FA03FC4CEA040491F803C0BCF1280F41
:1013400006D14FF0010C0CFA00FCC2F814C00AE000
:1013500091F803C0BCF1480F05D14FF0010C0CFA15
:1013600000FCC2F810C0401C0828D1D31460B1F8AA
:1013700000C0BCF1FF0F34DD546800202EE000F106
:10138000080C4FF0010808FA0CF3B1F800C00CEAA1
:1013900003069E4221D183004FF00F0C0CFA03F795
:1013A000BC4305FA03FC4CEA040491F803C0BCF109
:1013B000280F05D100F1080C08FA0CF8C2F81480C7
:1013C00091F803C0BCF1480F07D100F1080C4FF0B1
:1013D000010808FA0CF8C2F81080401C0828CED387
:1013E0005460BDE8F0814FF6FF71018002218170E9
:1013F0000421C17070470246002093680B400BB176
:10140000012000E0002070470146886880B27047E4
:1014100002460020D3680B400BB1012000E0002001
:1014200070470146C86880B27047016170474161EA
:1014300070470AB1016100E041617047C1607047C7
:101440004FF480320A4382618161826182698269DC
:10145000704702460020344B18684FF680731840DE
:1014600040EA02100843304B186070472F49C861AA
:101470007047F0B50A4600230024002100252A4EBB
:101480007168C0F3034583B200F44016B6F5401FFF
:1014900008D121F07061244E766826F07066224FE4
:1014A0007E6012E000F48016B6F5801F06D1032698
:1014B00006FA05F4A14341F0706106E0460D3601DD
:1014C00003FA06F6B14341F0706122B1460D3601D0
:1014D00003FA06F63143144E7160F0BD30B50022B8
:1014E0008B071C0F0F2303FA04F20F4B08338C10E9
:1014F00053F8243093430C4C08348D1044F82530B5
:1015000023468C1053F824308C07240F00FA04F47F
:101510002343054C08348D1044F8253030BD0000BD
:101520000014014000F8FEBF00000140000020420E
:10153000DE48006840F00100DC4908600846406869
:10154000DB490840D949486008460068D949084045
:10155000D64908600846006820F4802008600846E4
:10156000406820F4FE004860002088607047CF4942
:10157000096821F48031CD4A11601146096821F4CF
:1015800080211160B0F5803F03D0B0F5802F0ED1DF
:1015900006E0C649096841F48031C44A116007E099
:1015A000C249096841F4A021C04A116000E000BFAF
:1015B00000BF704710B501460022002300204A11E9
:1015C000012A02D1B94C236806E0022A02D1B74CA5
:1015D000236A01E0B54C636A01F01F0201249440C4
:1015E0001C400CB1012000E0002010BD38B50020E7
:1015F00000900024002500BF3120FFF7DBFF0546E7
:101600000098401C00901DB90098B0F5A06FF3D170
:101610003120FFF7CFFF08B1012400E0002420466D
:1016200038BD01460020A14A106820F0F80040EAC9
:10163000C10010607047A049086070470246002052
:101640009A4B586820F47C1042EA01031843974BE8
:101650005860704798490866704701460020934AD1
:10166000506820F003000843506070478F4840687E
:1016700000F00C007047014600208C4A506820F0B2
:10168000F00008435060704701460020874A5068C8
:1016900020F4E06008435060704701460020834A10
:1016A000506820F4605040EAC1005060704729B192
:1016B0007E4A527A02437D4B5A7204E07B4A527A48
:1016C00082437A4B5A7270477B49D8310860704721
:1016D00001460020754A506820F44040084350609D
:1016E00070470021714A20321170704A82F8201030
:1016F000012802D004280AD104E001216B4A2032DB
:10170000117005E00521694A2032117000E000BF28
:1017100000BF70476949086070476449096A01431E
:10172000624A11627047654944390860704730B5B4
:1017300000210022002400235C4D6D6805F00C019F
:1017400021B1042905D0082923D105E05C4D0560AD
:1017500022E05B4D05601FE0544D6D6805F470128A
:10176000022505EB9242514D6D6805F480341CB999
:10177000544D554305600BE04C4D6D6805F4003544
:101780001DB1504D5543056002E04D4D5543056078
:1017900002E04B4D056000BF00BF444D6D6805F091
:1017A000F0010909484D6B5C0568DD4045603F4D1F
:1017B0006D6805F4E061090A434D6B5C4568DD40E6
:1017C00085603A4D6D6805F46051C90A3E4D6B5C09
:1017D0004568DD40C560354D6D6805F44041890BB5
:1017E0003A4D6B5CC568B5FBF3F5056130BD29B1B9
:1017F0002E4A526902432D4B5A6104E02B4A52692A
:1018000082432A4B5A61704729B1284A92690243A0
:10181000264B9A6104E0254A92698243234B9A61E0
:10182000704729B1214AD2690243204BDA6104E0B2
:101830001E4AD26982431D4BDA61704729B11B4AA7
:10184000D2680243194BDA6004E0184AD268824336
:10185000164BDA60704729B1144A12690243134BE0
:101860001A6104E0114A12698243104B1A617047F1
:1018700012494039086070470F49C86470470B49E6
:10188000C87170470948406A40F080700749486253
:10189000704701460020054A92680A400AB10120BB
:1018A00000E0002070470149887270470010024034
:1018B0000000FFF8FFFFF6FE0000424280044242B3
:1018C00000127A0000093D002000002030000020B6
:1018D00010B50446D749601A8C422BD006DCD64896
:1018E000204498B1B0F5806F38D119E0B0F5806F21
:1018F0002AD0B0F56C4F31D101218803FFF79EFF4C
:1019000000214FF48040FFF799FF28E001214804AF
:10191000FFF7A1FF00214FF40030FFF79CFF1EE00E
:1019200001218804FFF797FF00214FF48020FFF783
:1019300092FF14E00121C804FFF78DFF00214FF44E
:101940000020FFF788FF0AE001210805FFF783FF69
:1019500000214FF48010FFF77EFF00E000BF00BFC2
:1019600010BD2DE9F04786B005460E460024A2467C
:1019700000BF00BF00272F462C8A4CF6FF700440A2
:10198000F08804432C82AC894EF6F3100440B088F2
:1019900031890843718908430443AC81AC8A4FF60E
:1019A000FF400440B0890443AC8201A8FFF7BFFEAA
:1019B000A248874202D1DDF810A001E0DDF80CA0BA
:1019C0000AEBCA0000EB0A1031688900B0FBF1F89D
:1019D0006420B8FBF0F004012009642101FB1089A8
:1019E000322000EB0910B0FBF1F000F00F000443CF
:1019F0002C8106B0BDE8F0874FF41651016000213C
:101A00008180C18001810C21418100218181704749
:101A100010B502460020108A4FF2FF0318400B88D1
:101A20004C8823438C882343CC882343184310825B
:101A300010BD0021018041808180C180704721B1AB
:101A4000828942F40052828104E082894DF6FF735C
:101A50001A4082817047F0B5034600240026002515
:101A600000201846C1F3421401F01F06012707FAAF
:101A700006F5012C01D10C3004E0022C01D110300C
:101A800000E014301AB107682F43076002E00768CE
:101A9000AF430760F0BD1AB1838A0B43838202E033
:101AA000838A8B4383827047028A4FF6F0731A4011
:101AB0000282028A0A430282704782894FF2FF73D0
:101AC0001A40828182890A438281704721B18289CA
:101AD00042F00202828104E082894FF6FD731A40CF
:101AE00082817047028A4FF6DF731A400282028AAF
:101AF0000A430282704721B1028A42F48042028284
:101B000004E0028A4BF6FF731A4002827047C1F369
:101B100008028280704701468888C0F30800704739
:101B2000818941F0010181817047028BD2B2028329
:101B3000028B42EA012202837047028B02F47F4249
:101B40000283028B0A430283704721B1828A42F0EA
:101B50002002828204E0828A4FF6DF731A4082827A
:101B6000704721B1828A42F01002828204E0828AA8
:101B70004FF6EF731A408282704721B1828A42F099
:101B80000802828204E0828A4FF6F7731A4082824A
:101B90007047828A4FF6FB731A408282828A0A4318
:101BA0008282704721B1828A42F00202828204E07E
:101BB000828A4FF6FD731A408282704702460020E7
:101BC00013880B400BB1012000E000207047CA438E
:101BD0000280704770B502460B46002400210025A4
:101BE0000020C3F3421503F01F01012606FA01F19C
:101BF000012D02D19689314006E0022D02D1168ACC
:101C0000314001E0968A31401C12012606FA04F4A4
:101C10001688344011B10CB1012000E0002070BDE5
:101C200010B5002200230A1201249440A3B2DC4321
:101C3000048010BD004C004000BCFFBF00380140D4
:101C400010B50446F748204430B1B0F5806F0DD090
:101C5000B0F5C05F1ED113E001214802FFF7EEFD91
:101C600000214FF40070FFF7E9FD14E00121880224
:101C7000FFF7E4FD00214FF48060FFF7DFFD0AE08D
:101C80000121C803FFF7DAFD00214FF40040FFF700
:101C9000D5FD00E000BF00BF10BD30B502460020FA
:101CA00000235068E04C20400D790C6844EA05247C
:101CB000204350609068DD4C2040D1E902542C4311
:101CC0004D7944EA450420439060D06A20F47000C6
:101CD0000C7C641E1C43E3B240EA0350D06230BD6A
:101CE00000210160017141718160C16001210174B5
:101CF000704721B1826842F00102826003E082688D
:101D000022F001028260704721B1826842F4807241
:101D1000826003E0826822F480728260704710B5AE
:101D20000023CBB21AB144681C43446002E044680B
:101D30009C43446010BD816841F008018160704798
:101D4000014600208A6802F008020AB1012000E082
:101D500000207047816841F00401816070470146AE
:101D600000208A6802F004020AB1012000E000208D
:101D7000704721B1826842F4A002826003E0826869
:101D800022F4A00282607047014600208A6802F4B3
:101D900080020AB1012000E00020704710B50A4619
:101DA00000210023416821F46041531E41EA433180
:101DB000416010BD21B1426842F40062426003E01C
:101DC000426822F4006242607047F0B504460D4656
:101DD00000200021092D11DDE068A5F10A0606EBBF
:101DE0004607072606FA07F18843A5F10A0606EB1F
:101DF000460603FA06F10843E0600CE0206905EBB3
:101E00004507072606FA07F1884305EB450603FA5E
:101E100006F108432061072A0FDA606B561E06EBB5
:101E200086071F2606FA07F18843561E06EB86062C
:101E300005FA06F10843606322E00D2A0FDA206BF1
:101E4000D61F06EB86071F2606FA07F18843D61F22
:101E500006EB860605FA06F10843206310E0E06A07
:101E6000A2F10D0606EB86071F2606FA07F1884346
:101E7000A2F10D0606EB860605FA06F10843E062BC
:101E8000F0BD21B1826842F48012826003E0826872
:101E900022F48012826070470146C86C80B270479D
:101EA00063480068704721B1426842F48062426032
:101EB00003E0426822F480624260704721B14268C8
:101EC00042F48052426003E0426822F48052426051
:101ED00070470A460021816821F4E0411143816086
:101EE000704721B1826842F40042826003E0826858
:101EF00022F400428260704721B1826842F40212EB
:101F0000826003E0826822F4021282607047014618
:101F100000208A6802F400120AB1012000E00020CB
:101F20007047F0B504461546002000220026092916
:101F300011DDE068A1F10A0707EB470C072707FA54
:101F40000CF29043A1F10A0707EB470703FA07F2E7
:101F50001043E0600CE0206901EB410C072707FA11
:101F60000CF2904301EB410703FA07F210432061A2
:101F7000A06BC0F30156EF1C06F1010CA7EB0C0798
:101F800007EB870C1F2707FA0CF29043EF1C06F1B2
:101F9000010CA7EB0C0707EB870701FA07F21043C8
:101FA000A063F0BD10B50A4600210023816B21F427
:101FB0004011531E41EA0351816310BD42507047E6
:101FC00002465018806A80B270470A460021416874
:101FD000184B19401143416070474162826270475B
:101FE0000A460021416821F01F01114341607047FA
:101FF00040B10F494439096841F400010C4A443AA0
:10200000116007E00A494439096821F40001084ACF
:10201000443A116070470246002013680B405BB1E0
:1020200001200AE000DCFEBFFFFEF0FFFDF7F1FF3C
:102030004C240140FFFD3FFF00207047CA4302606F
:10204000704770B502460020002300240B1255682B
:10205000CEB205EA060415681D4015B10CB1012089
:1020600000E0002070BD00220A12D34303607047D5
:10207000016821F00101016000210160416081607F
:10208000C160874A811A90425BD012DC854AA0EB7E
:10209000020190423AD007DC83490144D9B11429A6
:1020A00022D028297AD128E0142938D0282975D1BE
:1020B0003EE0B1F56C7F5BD006DCB1F5627F49D0C4
:1020C000B1F5677F6AD14CE0B1F5717F57D0B1F5BA
:1020D000767F63D15BE073494439496841F00F0171
:1020E000704A443A51605AE06E494439496841F0B7
:1020F000F0016C4A443A516051E06A4944394968F8
:1021000041F47061674A443A516048E06549443996
:10211000496841F47041634A443A51603FE0614983
:102120004439496841F470215E4A443A516036E0CE
:102130005C494439496841F470015A4A443A516053
:102140002DE058494439496841F07061554A443A94
:10215000516024E05549096841F00F01534A11606C
:102160001DE05249096841F0F001504A116016E043
:102170004E49096841F470614C4A11600FE04B49C7
:10218000096841F47041494A116008E006E0474996
:10219000096841F47021454A116000E000BF00BFAA
:1021A000704710B50022026847F6F0739A430C6A34
:1021B0008B6823430C6923434C6923438C69234375
:1021C000CC6923434C6A23438C6A23431A4302603D
:1021D000CB6843600B6883604B68C36010BD00210F
:1021E000016041608160C160016141618161C161E3
:1021F000016241628162704721B1026842F00102CE
:10220000026003E0026822F00102026070471AB126
:1022100003680B43036002E003688B43036070476D
:102220000146486880B2704701460020002201F054
:1022300080531BB11D4B1B1F1A6802E0194B443B16
:102240001A6802EA01030BB1012000E00020704788
:1022500000F0805111B11549086002E0114944397C
:102260004860704701460020002201F080531BB1F6
:102270000E4B1B1F1A6802E00A4B443B1A6802EA25
:1022800001030BB1012000E00020704700F08051F5
:1022900011B10649086002E00249443948607047BC
:1022A0008000024044000240F8FFFDBF04040240E9
:1022B00010B50446F749601A8C4245D00CDCB4F1E5
:1022C000804F1DD0F448204418B3B0F5806F29D05A
:1022D000B0F5006F54D12EE0B0F5806F3DD0B0F571
:1022E0008E3F03D0B0F5923F4AD13FE00121C802B2
:1022F000FFF7A4FA00214FF40060FFF79FFA40E0D7
:1023000001210846FFF7A7FA00210120FFF7A3FAF1
:1023100037E001210220FFF79EFA00210220FFF79B
:102320009AFA2EE001210420FFF795FA00210420FB
:10233000FFF791FA25E001210820FFF78CFA002130
:102340000820FFF788FA1CE001211020FFF783FA2C
:1023500000211020FFF77FFA13E001212020FFF772
:102360007AFA00212020FFF776FA0AE001214803DB
:10237000FFF764FA00214FF40050FFF75FFA00E026
:1023800000BF00BF10BD028802F08F020280CA8821
:102390004B881A4303881A4302808A8882850A88F8
:1023A0000285BE4A904202D0BD4A904201D10A7ACB
:1023B000028601228282704770B500240022002329
:1023C000058C4FF6FE7635400584028C8388048B9D
:1023D0004FF68F752C400D882C43751E2A400D89B1
:1023E0002A434D882A43CD888586AC4DA84202D029
:1023F000AB4DA84213D14FF6F7752A404D892A43B9
:102400004FF6FB752A408D882A4347F6FF652B401F
:1024100047F6FF552B408D892B43CD892B43838075
:102420000483028470BD70B5002400220023058C53
:102430004FF6EF7635400584028C8388048B48F68E
:10244000FF752C400D884FF6FF7606EA05252C43D4
:102450004FF6DF752A400D8906EA05152A434D8897
:1024600006EA05152A43CD8805878C4DA84202D07F
:102470008B4DA8421DD14FF67F752A404D894FF6EE
:10248000FF7606EA05152A434FF6BF752A408D8868
:1024900006EA05152A4347F6FF352B4047F2FF753C
:1024A0002B408D8906EA85052B43CD8906EA8505F3
:1024B0002B4383800483028470BD70B50024002206
:1024C0000023058C4FF6FF6635400584028C838817
:1024D000848B4FF68F752C400D882C434FF6FF559B
:1024E0002A400D894FF6FF7606EA05252A434D88D6
:1024F00006EA05252A43CD888587684DA84202D083
:10250000674DA8421DD14FF2FF752A404D894FF605
:10251000FF7606EA05252A434FF6FF352A408D88C7
:1025200006EA05252A4346F6FF752B4045F6FF755A
:102530002B408D8906EA05152B43CD8906EA051542
:102540002B4383808483028470BD70B500240022F5
:102550000023058C4EF6FF7635400584028C838877
:10256000848B48F6FF752C400D884FF6FF7606EAFF
:1025700005252C434DF6FF752A400D8906EA0535E1
:102580002A434D8806EA05352A43CD88A0F84050F5
:10259000424DA84202D0424DA84207D1C3F30D03D9
:1025A0008D894FF6FF7606EA85152B438380848359
:1025B000028470BD828B4FF2FF331A408283828B7C
:1025C0004FF6FF7303EA01231A4382837047F0B585
:1025D0000C461546002100220026078C4EF6FF7C93
:1025E00007EA0C070784818B028C4FF6FF7707EA16
:1025F000043640F6FF4739404FF6FF7707EA0527D4
:102600004FF6FF7C0CEA033C47EA0C0739434DF6D2
:10261000FF773A4046F480573A4381830284F0BD05
:10262000828B4FF6F3731A408283828B0A43828334
:102630007047F0B50C461546002100220026078C95
:102640004FF6FF6C07EA0C070784818B028C4FF66C
:10265000FF7707EA04264FF60C7739404FF6FF77ED
:1026600007EA03172F4339434FF6FF573A4046F422
:1026700080773A4381830284F0BD028B4FF2FF33AF
:102680001A400283028B4FF6FF7303EA01231A43B9
:10269000028370470010004000FCFFBF002C014087
:1026A00000340140F0B50C461546002100220026FA
:1026B000078C4FF6EF7C07EA0C070784018B028C2E
:1026C0004FF6FF7707EA041640F6FF4739404FF60A
:1026D000FF7707EA033739434FF6FF7707EA052705
:1026E00039434FF6DF773A4046F010073A4301830B
:1026F0000284F0BD028B4FF6F3731A400283028B03
:102700000A4302837047F0B50C46154600210022AB
:10271000068C4FF6FE773E400684018B028C4FF606
:102720000C7631407E1C06EA03162E4331437E1E92
:10273000324044F00106324301830284F0BD70B59B
:1027400005460C46208850B92389A288618828460E
:10275000FFF7D9FFE1882846FFF7CCFF25E0208866
:1027600004280AD12389A28861882846FFF79AFFA6
:10277000E1882846FFF781FF17E0208808280AD162
:102780002389A28861882846FFF753FFE1882846FD
:10279000FFF746FF09E02389A28861882846FFF7F2
:1027A00016FFE1882846FFF705FF70BD2DE9F041CF
:1027B00005460C4600260127608808B9022600E07D
:1027C0000026A088012801D1022700E001272088E7
:1027D000A0B92389A28861882846FFF794FFE18881
:1027E0002846FFF787FF23893A4631462846FFF7F8
:1027F00059FFE1882846FFF740FF13E02389A288AC
:1028000061882846FFF74EFFE1882846FFF735FF2D
:1028100023893A4631462846FFF775FFE188284666
:10282000FFF768FFBDE8F0810A884B881A438B8860
:102830001A43CB881A430B891A434B891A438B8955
:102840001A43A0F8442070474FF6FF7181800021A1
:102850000180C18041800172704700210180418068
:102860008180C180018141818181C18170470021C6
:1028700001804180012181800021C1800181704758
:102880000021018041808180C1800181418181815D
:10289000704721B1028842F00102028004E0028800
:1028A00040F2FE331A400280704731B1B0F8442044
:1028B00042F40042A0F8442005E0B0F84420C2F3FE
:1028C0000E02A0F8442070471AB183890B4383811C
:1028D00002E083898B43838170478182704741EA9C
:1028E0000203A0F8483070471AB183890B438381F3
:1028F00002E083898B438381704701894FF6F87228
:102900001140018170470A46002101894FF68F73FB
:10291000194011430181704730B504460D462946E0
:102920002046FFF7F0FF208940F00700208130BDEE
:102930002DE9F04104460D4616461F46602D06D18E
:102940003B46012231462046FFF7ACFE05E03B4600
:10295000012231462046FFF7D6FE29462046FFF7E2
:10296000D2FF208940F007002081BDE8F08170B5DA
:102970000C4600210189C9B244EA02054FF6FF76F0
:1029800006EA032635432943018170BD2DE9F04154
:1029900005460E4617469846002443463A463146B9
:1029A0002846FFF7E4FF2C894FF6F870044044F006
:1029B00007044FF68F70044044F070042C81BDE88A
:1029C000F081F0B504460D4616461F463B4632469A
:1029D00029462046FFF7CBFF208940F48040208124
:1029E000F0BD0185828270470A460021018840F2CD
:1029F0008F331940114301807047F0B50C461546DE
:102A00001E460021002200230189028B038C4FF611
:102A1000F877394021434FF6FC473A4040F201171E
:102A20003A434FF6DD773B404FF6FF7707EA06174C
:102A30002F433B43018102830384F0BD0A460021FA
:102A4000018B4FF68F7319401143018370470A467B
:102A50000021018B48F6FF7319404FF6FF7303EA1C
:102A600002231943018370470A460021818B4FF6E8
:102A70008F7319401143818370470A460021818B6F
:102A800048F6FF7319404FF6FF7303EA0223194318
:102A90008183704721B1028842F08002028004E005
:102AA000028840F27F331A400280704721B1828849
:102AB00042F00402828004E082884FF6FB731A40E1
:102AC0008280704721B1828842F00802828004E04F
:102AD00082884FF6F7731A408280704721B182884E
:102AE00042F00102828004E082884FF6FE731A40B1
:102AF000828070470A460021018B4FF6F773194018
:102B00001143018370470A460021018B4FF2FF7386
:102B100019404FF6FF7303EA0223194301837047FC
:102B20000A460021818B4FF6F773194011438183C8
:102B300070470A460021818B4FF2FF7319404FF610
:102B4000FF7303EA02231943818370470A46002179
:102B5000018B4FF6FB7319401143018370470A46FE
:102B60000021018B4FF6FF3319404FF6FF7303EA44
:102B700002231943018370470A460021818B4FF6D7
:102B8000FB7319401143818370470A460021818BF2
:102B90004FF6FF3319404FF6FF7303EA0223194340
:102BA000818370470A460021018B4FF67F731940DD
:102BB0001143018370470A460021018BC1F30E01C6
:102BC0004FF6FF7303EA02231943018370470A4655
:102BD0000021818B4FF67F73194011438183704729
:102BE0000A460021818BC1F30E014FF6FF7303EA01
:102BF00002231943818370470A460021018C4FF656
:102C0000FD7319401143018470470A460021018C6D
:102C10004FF6F77319401143018470470A460021AB
:102C2000018C4FF6DF7319404FF6FF7303EA02136E
:102C30001943018470470A460021018C4FF67F73C7
:102C400019404FF6FF7303EA0213194301847047DA
:102C50000A460021018C4FF6FF5319404FF6FF73CF
:102C600003EA02231943018470470A460021018CBC
:102C70004FF2FF7319404FF6FF7303EA0223194323
:102C8000018470470A460021018C4DF6FF731940FC
:102C90004FF6FF7303EA023319430184704710B5FE
:102CA000038C01248C40A3430384038C02FA01F4B7
:102CB000A4B22343038410BD10B5038C04248C40BC
:102CC000A3430384038C02FA01F4A4B223430384D4
:102CD00010BD30B5038C01248C40A343038409B19B
:102CE000082918D100F1180303EB61031B684FF6A4
:102CF0008F74234000F1180404EB6104236000F199
:102D0000180303EB61031B68134300F1180404EB81
:102D1000610423601FE00B1FC3F34E0400F118038E
:102D20001B5948F6FF7423400C1FC4F34E0500F1F5
:102D3000180463510B1FC3F34E0400F118031B5911
:102D40004FF6FF7404EA022423430C1FC4F34E051C
:102D500000F11804635130BD21B1028842F0020233
:102D6000028004E0028840F2FD331A40028070477E
:102D700021B1028842F00402028004E0028840F29D
:102D8000FB331A400280704721B1828842F08002F2
:102D9000828004E082884FF67F731A4082807047F9
:102DA000028840F2F7331A40028002880A43028008
:102DB000704782884FF68F731A40828082880A4358
:102DC0008280704702894FF6F8731A4002810289A7
:102DD0000A430281704702894FF67F731A400281CD
:102DE00002890A4302817047818470478185704758
:102DF000818670470187704781877047A0F840102F
:102E000070470288D2B2028002880A43028070476B
:102E10000146888E70470146088F70470146888FAB
:102E200070470146B1F8400070470146888C7047F2
:102E30000146088D704702460020138A0B400BB1F3
:102E4000012000E000207047CA430282704730B57D
:102E50000246002000230024158A05EA0103958913
:102E600005EA010413B10CB1012000E0002030BDDF
:102E7000CA430282704700000CB500200190009008
:102E80004748006840F480304549086000BF444826
:102E9000006800F4003000900198401C01900098F8
:102EA00018B90198B0F5A06FF1D13D48006800F461
:102EB000003010B10120009001E000200090009847
:102EC000012844D13748006840F0100035490860B7
:102ED0000846006820F0030008600846006840F0DB
:102EE000020008602E4840682D4948600846406846
:102EF00048600846406840F4806048600846406882
:102F000020F47C1048600846406840F4E8104860AF
:102F10000846006840F08070086000BF20480068E4
:102F200000F000700028F9D01D48406820F0030030
:102F30001B4948600846406840F00200486000BFF6
:102F40001748406800F00C000828F9D101E000BFE4
:102F5000FEE70CBD10B5FFF78FFF10BD10B5104890
:102F6000006840F001000E490860084640680E49BC
:102F700008400B494860084600680C490840084969
:102F800008600846006820F4802008600846406811
:102F900020F4FE00486000208860FFF7DBFF10BDD2
:102FA00000100240002002400000FFF8FFFFF6FE84
:102FB00080EA010210B502F00043400022D04A002E
:102FC0001FD0010E01EB1261C0F35600C2F356028E
:102FD00040F4000042F40002A0FB022000047F390C
:102FE000140400D0401C50EA124001D44000491E95
:102FF000C2B20C0604EBD010401C4008802A02D05C
:1030000003E0002010BD20F00100002900DA0020BC
:10301000184310BD20F00040C10DC0F3160040F46D
:1030200000007F2901DA00207047962903DCC1F1F6
:103030009601C840704796398840704700F00042BA
:1030400030F000400AD0C10D01F56071C0F31600E8
:1030500042EA0151C208400711437047002001466F
:103060007047000030B5041E71F1000404DB4FF01E
:103070000044404264EB0101141E73F1000405DBBF
:103080001C464FF00043524263EB04038B4208BFDF
:10309000824230BD30B5041E71F1000404DB4FF0F4
:1030A0000044404264EB0101141E73F1000405DB8F
:1030B0001C464FF00043524263EB0403994208BFA1
:1030C000904230BD002801DBC0F10040002901DB47
:1030D000C1F1004181427047064C074D06E0E068AF
:1030E00040F0010394E8070098471034AC42F6D34F
:1030F000FDF722F844320008643200080FB4054B93
:1031000010B503A9044A029800F02BF810BC5DF832
:1031100014FB000067020008000000200FB4084BF9
:1031200010B504A902AA039800F01BF8044602A9EE
:10313000002000F081F8204610BC5DF814FB000070
:103140003932000802E008C8121F08C1002AFAD16B
:1031500070477047002001E001C1121F002AFBD117
:1031600070472DE9F84F9946924688460546002754
:1031700006E025280AD051464A4690476D1C7F1C20
:1031800028780028F5D13846BDE8F88F002315F8D7
:10319000011F18462E2915D115F8011F04232A29CD
:1031A0000DD06FF02F022978A1F13004092C09D835
:1031B00000EB800002EB400008446D1CF3E758F878
:1031C000040B6D1C2A78002ADDD0632A07D0732AED
:1031D0000FD0104651464A4690477F1C2AE018F807
:1031E000042B8DF8002000218DF801106E4601217E
:1031F00003E058F8046B4FF0FF315A074FF000041A
:1032000001D409E0641C84420BDA8C42FADB325DA3
:10321000002AF7D105E0641C8C42FCDB305D0028FD
:10322000F9D1274404E016F8010B51464A4690476D
:10323000641EF8D26D1CA3E70A68531C0B60107063
:1032400070470000643200080000002034000000D5
:103250004431000898320008340000201C030000AC
:1032600054310008000000000000000000000000D1
:10327000000000000000000000000000000000004E
:10328000000000000000000001020304010203042A
:08329000060708090204060804
:0400000508000147A7
:00000001FF
